{
  "contractName": "MedicineSupplyChain",
  "abi": [
    {
      "anonymous": false,
      "inputs": [
        {
          "indexed": false,
          "internalType": "uint256",
          "name": "id",
          "type": "uint256"
        },
        {
          "indexed": false,
          "internalType": "string",
          "name": "name",
          "type": "string"
        },
        {
          "indexed": false,
          "internalType": "address",
          "name": "manufacturer",
          "type": "address"
        }
      ],
      "name": "MedicineCreated",
      "type": "event"
    },
    {
      "anonymous": false,
      "inputs": [
        {
          "indexed": false,
          "internalType": "uint256",
          "name": "id",
          "type": "uint256"
        },
        {
          "indexed": false,
          "internalType": "address",
          "name": "retailer",
          "type": "address"
        }
      ],
      "name": "MedicineDistributed",
      "type": "event"
    },
    {
      "anonymous": false,
      "inputs": [
        {
          "indexed": false,
          "internalType": "uint256",
          "name": "id",
          "type": "uint256"
        },
        {
          "indexed": false,
          "internalType": "address",
          "name": "customer",
          "type": "address"
        }
      ],
      "name": "MedicineSold",
      "type": "event"
    },
    {
      "anonymous": false,
      "inputs": [
        {
          "indexed": false,
          "internalType": "uint256",
          "name": "id",
          "type": "uint256"
        },
        {
          "indexed": false,
          "internalType": "address",
          "name": "distributor",
          "type": "address"
        }
      ],
      "name": "MedicineSupplied",
      "type": "event"
    },
    {
      "inputs": [],
      "name": "medicineCount",
      "outputs": [
        {
          "internalType": "uint256",
          "name": "",
          "type": "uint256"
        }
      ],
      "stateMutability": "view",
      "type": "function",
      "constant": true
    },
    {
      "inputs": [
        {
          "internalType": "uint256",
          "name": "",
          "type": "uint256"
        }
      ],
      "name": "medicines",
      "outputs": [
        {
          "internalType": "uint256",
          "name": "id",
          "type": "uint256"
        },
        {
          "internalType": "string",
          "name": "name",
          "type": "string"
        },
        {
          "internalType": "address",
          "name": "manufacturer",
          "type": "address"
        },
        {
          "internalType": "address",
          "name": "distributor",
          "type": "address"
        },
        {
          "internalType": "address",
          "name": "retailer",
          "type": "address"
        },
        {
          "internalType": "address",
          "name": "customer",
          "type": "address"
        }
      ],
      "stateMutability": "view",
      "type": "function",
      "constant": true
    },
    {
      "inputs": [
        {
          "internalType": "string",
          "name": "_name",
          "type": "string"
        }
      ],
      "name": "createMedicine",
      "outputs": [],
      "stateMutability": "nonpayable",
      "type": "function"
    },
    {
      "inputs": [
        {
          "internalType": "uint256",
          "name": "_id",
          "type": "uint256"
        },
        {
          "internalType": "address",
          "name": "_distributor",
          "type": "address"
        }
      ],
      "name": "supplyMedicine",
      "outputs": [],
      "stateMutability": "nonpayable",
      "type": "function"
    },
    {
      "inputs": [
        {
          "internalType": "uint256",
          "name": "_id",
          "type": "uint256"
        },
        {
          "internalType": "address",
          "name": "_retailer",
          "type": "address"
        }
      ],
      "name": "distributeMedicine",
      "outputs": [],
      "stateMutability": "nonpayable",
      "type": "function"
    },
    {
      "inputs": [
        {
          "internalType": "uint256",
          "name": "_id",
          "type": "uint256"
        },
        {
          "internalType": "address",
          "name": "_customer",
          "type": "address"
        }
      ],
      "name": "sellMedicine",
      "outputs": [],
      "stateMutability": "nonpayable",
      "type": "function"
    }
  ],
  "bytecode": "0x608060405234801561001057600080fd5b506112a6806100206000396000f3fe608060405234801561001057600080fd5b50600436106100625760003560e01c806313d30d72146100675780631936537f14610083578063377775411461009f5780634dafd490146100bb57806391de378d146100d9578063c85e766d146100f5575b600080fd5b610081600480360381019061007c9190610beb565b61012a565b005b61009d60048036038101906100989190610beb565b610302565b005b6100b960048036038101906100b49190610b75565b6104da565b005b6100c3610716565b6040516100d09190610e14565b60405180910390f35b6100f360048036038101906100ee9190610beb565b61071c565b005b61010f600480360381019061010a9190610bbe565b6108f4565b60405161012196959493929190610e96565b60405180910390f35b3373ffffffffffffffffffffffffffffffffffffffff1660008084815260200190815260200160002060030160009054906101000a900473ffffffffffffffffffffffffffffffffffffffff1673ffffffffffffffffffffffffffffffffffffffff16146101cd576040517f08c379a00000000000000000000000000000000000000000000000000000000081526004016101c490610d94565b60405180910390fd5b600073ffffffffffffffffffffffffffffffffffffffff1660008084815260200190815260200160002060040160009054906101000a900473ffffffffffffffffffffffffffffffffffffffff1673ffffffffffffffffffffffffffffffffffffffff1614610271576040517f08c379a000000000000000000000000000000000000000000000000000000000815260040161026890610d54565b60405180910390fd5b8060008084815260200190815260200160002060040160006101000a81548173ffffffffffffffffffffffffffffffffffffffff021916908373ffffffffffffffffffffffffffffffffffffffff1602179055507f5b3d690ff6e26244f19e425dee8719525bfd9ea923b09145e88b65370b8e2bd282826040516102f6929190610e2f565b60405180910390a15050565b3373ffffffffffffffffffffffffffffffffffffffff1660008084815260200190815260200160002060020160009054906101000a900473ffffffffffffffffffffffffffffffffffffffff1673ffffffffffffffffffffffffffffffffffffffff16146103a5576040517f08c379a000000000000000000000000000000000000000000000000000000000815260040161039c90610db4565b60405180910390fd5b600073ffffffffffffffffffffffffffffffffffffffff1660008084815260200190815260200160002060030160009054906101000a900473ffffffffffffffffffffffffffffffffffffffff1673ffffffffffffffffffffffffffffffffffffffff1614610449576040517f08c379a000000000000000000000000000000000000000000000000000000000815260040161044090610d74565b60405180910390fd5b8060008084815260200190815260200160002060030160006101000a81548173ffffffffffffffffffffffffffffffffffffffff021916908373ffffffffffffffffffffffffffffffffffffffff1602179055507f9d0c43ca1c36db801f3431e0050736151a105911a283f9560ee550fb2efd082882826040516104ce929190610e2f565b60405180910390a15050565b600160008154809291906104ed90611051565b91905055506040518060c0016040528060015481526020018281526020013373ffffffffffffffffffffffffffffffffffffffff168152602001600073ffffffffffffffffffffffffffffffffffffffff168152602001600073ffffffffffffffffffffffffffffffffffffffff168152602001600073ffffffffffffffffffffffffffffffffffffffff1681525060008060015481526020019081526020016000206000820151816000015560208201518160010190805190602001906105b6929190610a38565b5060408201518160020160006101000a81548173ffffffffffffffffffffffffffffffffffffffff021916908373ffffffffffffffffffffffffffffffffffffffff16021790555060608201518160030160006101000a81548173ffffffffffffffffffffffffffffffffffffffff021916908373ffffffffffffffffffffffffffffffffffffffff16021790555060808201518160040160006101000a81548173ffffffffffffffffffffffffffffffffffffffff021916908373ffffffffffffffffffffffffffffffffffffffff16021790555060a08201518160050160006101000a81548173ffffffffffffffffffffffffffffffffffffffff021916908373ffffffffffffffffffffffffffffffffffffffff1602179055509050507fafa3e5ba97ce13ab8d7523da9bada7b44966c9d6ce28e58f7e301c428464fb33600154823360405161070b93929190610e58565b60405180910390a150565b60015481565b3373ffffffffffffffffffffffffffffffffffffffff1660008084815260200190815260200160002060040160009054906101000a900473ffffffffffffffffffffffffffffffffffffffff1673ffffffffffffffffffffffffffffffffffffffff16146107bf576040517f08c379a00000000000000000000000000000000000000000000000000000000081526004016107b690610dd4565b60405180910390fd5b600073ffffffffffffffffffffffffffffffffffffffff1660008084815260200190815260200160002060050160009054906101000a900473ffffffffffffffffffffffffffffffffffffffff1673ffffffffffffffffffffffffffffffffffffffff1614610863576040517f08c379a000000000000000000000000000000000000000000000000000000000815260040161085a90610df4565b60405180910390fd5b8060008084815260200190815260200160002060050160006101000a81548173ffffffffffffffffffffffffffffffffffffffff021916908373ffffffffffffffffffffffffffffffffffffffff1602179055507f055a9de171198d1c04be531caabf1c3d547c6264dac9f58f65a2ca62ca43db4b82826040516108e8929190610e2f565b60405180910390a15050565b600060205280600052604060002060009150905080600001549080600101805461091d90610fee565b80601f016020809104026020016040519081016040528092919081815260200182805461094990610fee565b80156109965780601f1061096b57610100808354040283529160200191610996565b820191906000526020600020905b81548152906001019060200180831161097957829003601f168201915b5050505050908060020160009054906101000a900473ffffffffffffffffffffffffffffffffffffffff16908060030160009054906101000a900473ffffffffffffffffffffffffffffffffffffffff16908060040160009054906101000a900473ffffffffffffffffffffffffffffffffffffffff16908060050160009054906101000a900473ffffffffffffffffffffffffffffffffffffffff16905086565b828054610a4490610fee565b90600052602060002090601f016020900481019282610a665760008555610aad565b82601f10610a7f57805160ff1916838001178555610aad565b82800160010185558215610aad579182015b82811115610aac578251825591602001919060010190610a91565b5b509050610aba9190610abe565b5090565b5b80821115610ad7576000816000905550600101610abf565b5090565b6000610aee610ae984610f23565b610efe565b905082815260208101848484011115610b0a57610b0961112c565b5b610b15848285610fac565b509392505050565b600081359050610b2c81611242565b92915050565b600082601f830112610b4757610b46611127565b5b8135610b57848260208601610adb565b91505092915050565b600081359050610b6f81611259565b92915050565b600060208284031215610b8b57610b8a611136565b5b600082013567ffffffffffffffff811115610ba957610ba8611131565b5b610bb584828501610b32565b91505092915050565b600060208284031215610bd457610bd3611136565b5b6000610be284828501610b60565b91505092915050565b60008060408385031215610c0257610c01611136565b5b6000610c1085828601610b60565b9250506020610c2185828601610b1d565b9150509250929050565b610c3481610f70565b82525050565b6000610c4582610f54565b610c4f8185610f5f565b9350610c5f818560208601610fbb565b610c688161113b565b840191505092915050565b6000610c80601383610f5f565b9150610c8b8261114c565b602082019050919050565b6000610ca3601083610f5f565b9150610cae82611175565b602082019050919050565b6000610cc6601f83610f5f565b9150610cd18261119e565b602082019050919050565b6000610ce9601c83610f5f565b9150610cf4826111c7565b602082019050919050565b6000610d0c601683610f5f565b9150610d17826111f0565b602082019050919050565b6000610d2f600c83610f5f565b9150610d3a82611219565b602082019050919050565b610d4e81610fa2565b82525050565b60006020820190508181036000830152610d6d81610c73565b9050919050565b60006020820190508181036000830152610d8d81610c96565b9050919050565b60006020820190508181036000830152610dad81610cb9565b9050919050565b60006020820190508181036000830152610dcd81610cdc565b9050919050565b60006020820190508181036000830152610ded81610cff565b9050919050565b60006020820190508181036000830152610e0d81610d22565b9050919050565b6000602082019050610e296000830184610d45565b92915050565b6000604082019050610e446000830185610d45565b610e516020830184610c2b565b9392505050565b6000606082019050610e6d6000830186610d45565b8181036020830152610e7f8185610c3a565b9050610e8e6040830184610c2b565b949350505050565b600060c082019050610eab6000830189610d45565b8181036020830152610ebd8188610c3a565b9050610ecc6040830187610c2b565b610ed96060830186610c2b565b610ee66080830185610c2b565b610ef360a0830184610c2b565b979650505050505050565b6000610f08610f19565b9050610f148282611020565b919050565b6000604051905090565b600067ffffffffffffffff821115610f3e57610f3d6110f8565b5b610f478261113b565b9050602081019050919050565b600081519050919050565b600082825260208201905092915050565b6000610f7b82610f82565b9050919050565b600073ffffffffffffffffffffffffffffffffffffffff82169050919050565b6000819050919050565b82818337600083830152505050565b60005b83811015610fd9578082015181840152602081019050610fbe565b83811115610fe8576000848401525b50505050565b6000600282049050600182168061100657607f821691505b6020821081141561101a576110196110c9565b5b50919050565b6110298261113b565b810181811067ffffffffffffffff82111715611048576110476110f8565b5b80604052505050565b600061105c82610fa2565b91507fffffffffffffffffffffffffffffffffffffffffffffffffffffffffffffffff82141561108f5761108e61109a565b5b600182019050919050565b7f4e487b7100000000000000000000000000000000000000000000000000000000600052601160045260246000fd5b7f4e487b7100000000000000000000000000000000000000000000000000000000600052602260045260246000fd5b7f4e487b7100000000000000000000000000000000000000000000000000000000600052604160045260246000fd5b600080fd5b600080fd5b600080fd5b600080fd5b6000601f19601f8301169050919050565b7f416c726561647920646973747269627574656400000000000000000000000000600082015250565b7f416c726561647920737570706c69656400000000000000000000000000000000600082015250565b7f4f6e6c79206469737472696275746f722063616e206469737472696275746500600082015250565b7f4f6e6c79206d616e7566616374757265722063616e20737570706c7900000000600082015250565b7f4f6e6c792072657461696c65722063616e2073656c6c00000000000000000000600082015250565b7f416c726561647920736f6c640000000000000000000000000000000000000000600082015250565b61124b81610f70565b811461125657600080fd5b50565b61126281610fa2565b811461126d57600080fd5b5056fea26469706673582212207a403aedb184bacf99dfcea01907f3b48338ed55a7781f3b5cfb77c1c8f8e09d64736f6c63430008070033",
  "immutableReferences": {},
  "source": "// SPDX-License-Identifier: MIT\r\npragma solidity ^0.8.7;\r\n\r\ncontract MedicineSupplyChain {\r\n    struct Medicine {\r\n        uint id;\r\n        string name;\r\n        address manufacturer;\r\n        address distributor;\r\n        address retailer;\r\n        address customer;\r\n    }\r\n\r\n    mapping(uint => Medicine) public medicines;\r\n    uint public medicineCount;\r\n\r\n    event MedicineCreated(uint id, string name, address manufacturer);\r\n    event MedicineSupplied(uint id, address distributor);\r\n    event MedicineDistributed(uint id, address retailer);\r\n    event MedicineSold(uint id, address customer);\r\n\r\n    // Create Medicine\r\n    function createMedicine(string memory _name) public {\r\n        medicineCount++;\r\n        medicines[medicineCount] = Medicine(medicineCount, _name, msg.sender, address(0), address(0), address(0));\r\n        emit MedicineCreated(medicineCount, _name, msg.sender);\r\n    }\r\n\r\n    // Supply Medicine to Distributor\r\n    function supplyMedicine(uint _id, address _distributor) public {\r\n        require(medicines[_id].manufacturer == msg.sender, \"Only manufacturer can supply\");\r\n        require(medicines[_id].distributor == address(0), \"Already supplied\");\r\n        medicines[_id].distributor = _distributor;\r\n        emit MedicineSupplied(_id, _distributor);\r\n    }\r\n\r\n    // Distribute Medicine to Retailer\r\n    function distributeMedicine(uint _id, address _retailer) public {\r\n        require(medicines[_id].distributor == msg.sender, \"Only distributor can distribute\");\r\n        require(medicines[_id].retailer == address(0), \"Already distributed\");\r\n        medicines[_id].retailer = _retailer;\r\n        emit MedicineDistributed(_id, _retailer);\r\n    }\r\n\r\n    // Sell Medicine to Customer\r\n    function sellMedicine(uint _id, address _customer) public {\r\n        require(medicines[_id].retailer == msg.sender, \"Only retailer can sell\");\r\n        require(medicines[_id].customer == address(0), \"Already sold\");\r\n        medicines[_id].customer = _customer;\r\n        emit MedicineSold(_id, _customer);\r\n    }\r\n}\r\n",
  "sourcePath": "C:\\Users\\Asif\\OneDrive\\Desktop\\pages\\my-dapp\\contracts\\MedicineSupplyChain.sol",
  "compiler": {
    "name": "solc",
    "version": "0.8.7+commit.e28d00a7.Emscripten.clang"
  },
  "schemaVersion": "3.4.16",
  "updatedAt": "2025-03-22T07:13:51.794Z",
  "networkType": "ethereum",
  "devdoc": {
    "kind": "dev",
    "methods": {},
    "version": 1
  },
  "userdoc": {
    "kind": "user",
    "methods": {},
    "version": 1
  }
}